{
  "_format": "hh-sol-artifact-1",
  "contractName": "NFTWarranty",
  "sourceName": "contracts/NFTWarranty.sol",
  "abi": [
    {
      "inputs": [
        {
          "internalType": "address",
          "name": "platformAddress",
          "type": "address"
        }
      ],
      "stateMutability": "nonpayable",
      "type": "constructor"
    },
    {
      "anonymous": false,
      "inputs": [
        {
          "indexed": true,
          "internalType": "address",
          "name": "owner",
          "type": "address"
        },
        {
          "indexed": true,
          "internalType": "address",
          "name": "approved",
          "type": "address"
        },
        {
          "indexed": true,
          "internalType": "uint256",
          "name": "tokenId",
          "type": "uint256"
        }
      ],
      "name": "Approval",
      "type": "event"
    },
    {
      "anonymous": false,
      "inputs": [
        {
          "indexed": true,
          "internalType": "address",
          "name": "owner",
          "type": "address"
        },
        {
          "indexed": true,
          "internalType": "address",
          "name": "operator",
          "type": "address"
        },
        {
          "indexed": false,
          "internalType": "bool",
          "name": "approved",
          "type": "bool"
        }
      ],
      "name": "ApprovalForAll",
      "type": "event"
    },
    {
      "anonymous": false,
      "inputs": [
        {
          "indexed": true,
          "internalType": "address",
          "name": "from",
          "type": "address"
        },
        {
          "indexed": true,
          "internalType": "address",
          "name": "to",
          "type": "address"
        },
        {
          "indexed": true,
          "internalType": "uint256",
          "name": "tokenId",
          "type": "uint256"
        }
      ],
      "name": "Transfer",
      "type": "event"
    },
    {
      "inputs": [
        {
          "internalType": "address",
          "name": "to",
          "type": "address"
        },
        {
          "internalType": "uint256",
          "name": "tokenId",
          "type": "uint256"
        }
      ],
      "name": "approve",
      "outputs": [],
      "stateMutability": "nonpayable",
      "type": "function"
    },
    {
      "inputs": [
        {
          "internalType": "address",
          "name": "owner",
          "type": "address"
        }
      ],
      "name": "balanceOf",
      "outputs": [
        {
          "internalType": "uint256",
          "name": "",
          "type": "uint256"
        }
      ],
      "stateMutability": "view",
      "type": "function"
    },
    {
      "inputs": [
        {
          "internalType": "uint256",
          "name": "tokenId",
          "type": "uint256"
        }
      ],
      "name": "getApproved",
      "outputs": [
        {
          "internalType": "address",
          "name": "",
          "type": "address"
        }
      ],
      "stateMutability": "view",
      "type": "function"
    },
    {
      "inputs": [
        {
          "internalType": "address",
          "name": "owner",
          "type": "address"
        },
        {
          "internalType": "address",
          "name": "operator",
          "type": "address"
        }
      ],
      "name": "isApprovedForAll",
      "outputs": [
        {
          "internalType": "bool",
          "name": "",
          "type": "bool"
        }
      ],
      "stateMutability": "view",
      "type": "function"
    },
    {
      "inputs": [
        {
          "internalType": "string",
          "name": "_tokenMetaDataURI",
          "type": "string"
        }
      ],
      "name": "mint",
      "outputs": [
        {
          "internalType": "uint256",
          "name": "",
          "type": "uint256"
        }
      ],
      "stateMutability": "nonpayable",
      "type": "function"
    },
    {
      "inputs": [],
      "name": "name",
      "outputs": [
        {
          "internalType": "string",
          "name": "",
          "type": "string"
        }
      ],
      "stateMutability": "view",
      "type": "function"
    },
    {
      "inputs": [
        {
          "internalType": "uint256",
          "name": "tokenId",
          "type": "uint256"
        }
      ],
      "name": "ownerOf",
      "outputs": [
        {
          "internalType": "address",
          "name": "",
          "type": "address"
        }
      ],
      "stateMutability": "view",
      "type": "function"
    },
    {
      "inputs": [
        {
          "internalType": "address",
          "name": "from",
          "type": "address"
        },
        {
          "internalType": "address",
          "name": "to",
          "type": "address"
        },
        {
          "internalType": "uint256",
          "name": "tokenId",
          "type": "uint256"
        }
      ],
      "name": "safeTransferFrom",
      "outputs": [],
      "stateMutability": "nonpayable",
      "type": "function"
    },
    {
      "inputs": [
        {
          "internalType": "address",
          "name": "from",
          "type": "address"
        },
        {
          "internalType": "address",
          "name": "to",
          "type": "address"
        },
        {
          "internalType": "uint256",
          "name": "tokenId",
          "type": "uint256"
        },
        {
          "internalType": "bytes",
          "name": "data",
          "type": "bytes"
        }
      ],
      "name": "safeTransferFrom",
      "outputs": [],
      "stateMutability": "nonpayable",
      "type": "function"
    },
    {
      "inputs": [
        {
          "internalType": "address",
          "name": "operator",
          "type": "address"
        },
        {
          "internalType": "bool",
          "name": "approved",
          "type": "bool"
        }
      ],
      "name": "setApprovalForAll",
      "outputs": [],
      "stateMutability": "nonpayable",
      "type": "function"
    },
    {
      "inputs": [
        {
          "internalType": "bytes4",
          "name": "interfaceId",
          "type": "bytes4"
        }
      ],
      "name": "supportsInterface",
      "outputs": [
        {
          "internalType": "bool",
          "name": "",
          "type": "bool"
        }
      ],
      "stateMutability": "view",
      "type": "function"
    },
    {
      "inputs": [],
      "name": "symbol",
      "outputs": [
        {
          "internalType": "string",
          "name": "",
          "type": "string"
        }
      ],
      "stateMutability": "view",
      "type": "function"
    },
    {
      "inputs": [
        {
          "internalType": "uint256",
          "name": "tokenId",
          "type": "uint256"
        }
      ],
      "name": "tokenURI",
      "outputs": [
        {
          "internalType": "string",
          "name": "",
          "type": "string"
        }
      ],
      "stateMutability": "view",
      "type": "function"
    },
    {
      "inputs": [
        {
          "internalType": "address",
          "name": "from",
          "type": "address"
        },
        {
          "internalType": "address",
          "name": "to",
          "type": "address"
        },
        {
          "internalType": "uint256",
          "name": "tokenId",
          "type": "uint256"
        }
      ],
      "name": "transferFrom",
      "outputs": [],
      "stateMutability": "nonpayable",
      "type": "function"
    },
    {
      "inputs": [
        {
          "internalType": "address",
          "name": "from",
          "type": "address"
        },
        {
          "internalType": "address",
          "name": "to",
          "type": "address"
        },
        {
          "internalType": "uint256",
          "name": "tokenId",
          "type": "uint256"
        }
      ],
      "name": "transferWarranty",
      "outputs": [],
      "stateMutability": "nonpayable",
      "type": "function"
    }
  ],
  "bytecode": "0x60806040523480156200001157600080fd5b50604051620018053803806200180583398101604081905262000034916200016a565b604080518082018252600c81526b4e46542057617272616e747960a01b6020808301918252835180850190945260048452634e46545760e01b9084015281519192916200008491600091620000c4565b5080516200009a906001906020840190620000c4565b5050600880546001600160a01b0319166001600160a01b03939093169290921790915550620001d9565b828054620000d2906200019c565b90600052602060002090601f016020900481019282620000f6576000855562000141565b82601f106200011157805160ff191683800117855562000141565b8280016001018555821562000141579182015b828111156200014157825182559160200191906001019062000124565b506200014f92915062000153565b5090565b5b808211156200014f576000815560010162000154565b6000602082840312156200017d57600080fd5b81516001600160a01b03811681146200019557600080fd5b9392505050565b600181811c90821680620001b157607f821691505b60208210811415620001d357634e487b7160e01b600052602260045260246000fd5b50919050565b61161c80620001e96000396000f3fe608060405234801561001057600080fd5b50600436106100f55760003560e01c806370a0823111610097578063c87b56dd11610066578063c87b56dd146101ff578063d85d3d2714610212578063e16d8c9f14610225578063e985e9c51461023857600080fd5b806370a08231146101b057806395d89b41146101d1578063a22cb465146101d9578063b88d4fde146101ec57600080fd5b8063095ea7b3116100d3578063095ea7b31461016257806323b872dd1461017757806342842e0e1461018a5780636352211e1461019d57600080fd5b806301ffc9a7146100fa57806306fdde0314610122578063081812fc14610137575b600080fd5b61010d6101083660046110d0565b610274565b60405190151581526020015b60405180910390f35b61012a6102c6565b6040516101199190611145565b61014a610145366004611158565b610358565b6040516001600160a01b039091168152602001610119565b61017561017036600461118d565b61037f565b005b6101756101853660046111b7565b61049a565b6101756101983660046111b7565b6104cb565b61014a6101ab366004611158565b6104e6565b6101c36101be3660046111f3565b610546565b604051908152602001610119565b61012a6105cc565b6101756101e736600461120e565b6105db565b6101756101fa3660046112d6565b6105ea565b61012a61020d366004611158565b610622565b6101c3610220366004611352565b610733565b6101756102333660046111b7565b610771565b61010d61024636600461139b565b6001600160a01b03918216600090815260056020908152604080832093909416825291909152205460ff1690565b60006001600160e01b031982166380ac58cd60e01b14806102a557506001600160e01b03198216635b5e139f60e01b145b806102c057506301ffc9a760e01b6001600160e01b03198316145b92915050565b6060600080546102d5906113ce565b80601f0160208091040260200160405190810160405280929190818152602001828054610301906113ce565b801561034e5780601f106103235761010080835404028352916020019161034e565b820191906000526020600020905b81548152906001019060200180831161033157829003601f168201915b5050505050905090565b6000610363826107da565b506000908152600460205260409020546001600160a01b031690565b600061038a826104e6565b9050806001600160a01b0316836001600160a01b031614156103fd5760405162461bcd60e51b815260206004820152602160248201527f4552433732313a20617070726f76616c20746f2063757272656e74206f776e656044820152603960f91b60648201526084015b60405180910390fd5b336001600160a01b038216148061041957506104198133610246565b61048b5760405162461bcd60e51b815260206004820152603e60248201527f4552433732313a20617070726f76652063616c6c6572206973206e6f7420746f60448201527f6b656e206f776e6572206e6f7220617070726f76656420666f7220616c6c000060648201526084016103f4565b610495838361083c565b505050565b6104a433826108aa565b6104c05760405162461bcd60e51b81526004016103f490611409565b610495838383610928565b610495838383604051806020016040528060008152506105ea565b6000818152600260205260408120546001600160a01b0316806102c05760405162461bcd60e51b8152602060048201526018602482015277115490cdcc8c4e881a5b9d985b1a59081d1bdad95b88125160421b60448201526064016103f4565b60006001600160a01b0382166105b05760405162461bcd60e51b815260206004820152602960248201527f4552433732313a2061646472657373207a65726f206973206e6f7420612076616044820152683634b21037bbb732b960b91b60648201526084016103f4565b506001600160a01b031660009081526003602052604090205490565b6060600180546102d5906113ce565b6105e6338383610ac4565b5050565b6105f433836108aa565b6106105760405162461bcd60e51b81526004016103f490611409565b61061c84848484610b93565b50505050565b606061062d826107da565b60008281526006602052604081208054610646906113ce565b80601f0160208091040260200160405190810160405280929190818152602001828054610672906113ce565b80156106bf5780601f10610694576101008083540402835291602001916106bf565b820191906000526020600020905b8154815290600101906020018083116106a257829003601f168201915b5050505050905060006106dd60408051602081019091526000815290565b90508051600014156106f0575092915050565b81511561072257808260405160200161070a929190611457565b60405160208183030381529060405292505050919050565b61072b84610bc6565b949350505050565b6000610743600780546001019055565b600061074e60075490565b600854909150610767906001600160a01b031682610c3a565b6102c08184610d7c565b826001600160a01b0316610784826104e6565b6001600160a01b0316146104c05760405162461bcd60e51b815260206004820181905260248201527f46726f6d2061646472657373206d75737420626520746f6b656e206f776e657260448201526064016103f4565b6000818152600260205260409020546001600160a01b03166108395760405162461bcd60e51b8152602060048201526018602482015277115490cdcc8c4e881a5b9d985b1a59081d1bdad95b88125160421b60448201526064016103f4565b50565b600081815260046020526040902080546001600160a01b0319166001600160a01b0384169081179091558190610871826104e6565b6001600160a01b03167f8c5be1e5ebec7d5bd14f71427d1e84f3dd0314c0f7b2291e5b200ac8c7c3b92560405160405180910390a45050565b6000806108b6836104e6565b9050806001600160a01b0316846001600160a01b031614806108fd57506001600160a01b0380821660009081526005602090815260408083209388168352929052205460ff165b8061072b5750836001600160a01b031661091684610358565b6001600160a01b031614949350505050565b826001600160a01b031661093b826104e6565b6001600160a01b03161461099f5760405162461bcd60e51b815260206004820152602560248201527f4552433732313a207472616e736665722066726f6d20696e636f72726563742060448201526437bbb732b960d91b60648201526084016103f4565b6001600160a01b038216610a015760405162461bcd60e51b8152602060048201526024808201527f4552433732313a207472616e7366657220746f20746865207a65726f206164646044820152637265737360e01b60648201526084016103f4565b610a0c60008261083c565b6001600160a01b0383166000908152600360205260408120805460019290610a3590849061149c565b90915550506001600160a01b0382166000908152600360205260408120805460019290610a639084906114b3565b909155505060008181526002602052604080822080546001600160a01b0319166001600160a01b0386811691821790925591518493918716917fddf252ad1be2c89b69c2b068fc378daa952ba7f163c4a11628f55a4df523b3ef91a4505050565b816001600160a01b0316836001600160a01b03161415610b265760405162461bcd60e51b815260206004820152601960248201527f4552433732313a20617070726f766520746f2063616c6c65720000000000000060448201526064016103f4565b6001600160a01b03838116600081815260056020908152604080832094871680845294825291829020805460ff191686151590811790915591519182527f17307eab39ab6107e8899845ad3d59bd9653f200f220920489ca2b5937696c31910160405180910390a3505050565b610b9e848484610928565b610baa84848484610e16565b61061c5760405162461bcd60e51b81526004016103f4906114cb565b6060610bd1826107da565b6000610be860408051602081019091526000815290565b90506000815111610c085760405180602001604052806000815250610c33565b80610c1284610f23565b604051602001610c23929190611457565b6040516020818303038152906040525b9392505050565b6001600160a01b038216610c905760405162461bcd60e51b815260206004820181905260248201527f4552433732313a206d696e7420746f20746865207a65726f206164647265737360448201526064016103f4565b6000818152600260205260409020546001600160a01b031615610cf55760405162461bcd60e51b815260206004820152601c60248201527f4552433732313a20746f6b656e20616c7265616479206d696e7465640000000060448201526064016103f4565b6001600160a01b0382166000908152600360205260408120805460019290610d1e9084906114b3565b909155505060008181526002602052604080822080546001600160a01b0319166001600160a01b03861690811790915590518392907fddf252ad1be2c89b69c2b068fc378daa952ba7f163c4a11628f55a4df523b3ef908290a45050565b6000828152600260205260409020546001600160a01b0316610df75760405162461bcd60e51b815260206004820152602e60248201527f45524337323155524953746f726167653a2055524920736574206f66206e6f6e60448201526d32bc34b9ba32b73a103a37b5b2b760911b60648201526084016103f4565b6000828152600660209081526040909120825161049592840190611021565b60006001600160a01b0384163b15610f1857604051630a85bd0160e11b81526001600160a01b0385169063150b7a0290610e5a90339089908890889060040161151d565b602060405180830381600087803b158015610e7457600080fd5b505af1925050508015610ea4575060408051601f3d908101601f19168201909252610ea19181019061155a565b60015b610efe573d808015610ed2576040519150601f19603f3d011682016040523d82523d6000602084013e610ed7565b606091505b508051610ef65760405162461bcd60e51b81526004016103f4906114cb565b805181602001fd5b6001600160e01b031916630a85bd0160e11b14905061072b565b506001949350505050565b606081610f475750506040805180820190915260018152600360fc1b602082015290565b8160005b8115610f715780610f5b81611577565b9150610f6a9050600a836115a8565b9150610f4b565b60008167ffffffffffffffff811115610f8c57610f8c61124a565b6040519080825280601f01601f191660200182016040528015610fb6576020820181803683370190505b5090505b841561072b57610fcb60018361149c565b9150610fd8600a866115bc565b610fe39060306114b3565b60f81b818381518110610ff857610ff86115d0565b60200101906001600160f81b031916908160001a90535061101a600a866115a8565b9450610fba565b82805461102d906113ce565b90600052602060002090601f01602090048101928261104f5760008555611095565b82601f1061106857805160ff1916838001178555611095565b82800160010185558215611095579182015b8281111561109557825182559160200191906001019061107a565b506110a19291506110a5565b5090565b5b808211156110a157600081556001016110a6565b6001600160e01b03198116811461083957600080fd5b6000602082840312156110e257600080fd5b8135610c33816110ba565b60005b838110156111085781810151838201526020016110f0565b8381111561061c5750506000910152565b600081518084526111318160208601602086016110ed565b601f01601f19169290920160200192915050565b602081526000610c336020830184611119565b60006020828403121561116a57600080fd5b5035919050565b80356001600160a01b038116811461118857600080fd5b919050565b600080604083850312156111a057600080fd5b6111a983611171565b946020939093013593505050565b6000806000606084860312156111cc57600080fd5b6111d584611171565b92506111e360208501611171565b9150604084013590509250925092565b60006020828403121561120557600080fd5b610c3382611171565b6000806040838503121561122157600080fd5b61122a83611171565b91506020830135801515811461123f57600080fd5b809150509250929050565b634e487b7160e01b600052604160045260246000fd5b600067ffffffffffffffff8084111561127b5761127b61124a565b604051601f8501601f19908116603f011681019082821181831017156112a3576112a361124a565b816040528093508581528686860111156112bc57600080fd5b858560208301376000602087830101525050509392505050565b600080600080608085870312156112ec57600080fd5b6112f585611171565b935061130360208601611171565b925060408501359150606085013567ffffffffffffffff81111561132657600080fd5b8501601f8101871361133757600080fd5b61134687823560208401611260565b91505092959194509250565b60006020828403121561136457600080fd5b813567ffffffffffffffff81111561137b57600080fd5b8201601f8101841361138c57600080fd5b61072b84823560208401611260565b600080604083850312156113ae57600080fd5b6113b783611171565b91506113c560208401611171565b90509250929050565b600181811c908216806113e257607f821691505b6020821081141561140357634e487b7160e01b600052602260045260246000fd5b50919050565b6020808252602e908201527f4552433732313a2063616c6c6572206973206e6f7420746f6b656e206f776e6560408201526d1c881b9bdc88185c1c1c9bdd995960921b606082015260800190565b600083516114698184602088016110ed565b83519083019061147d8183602088016110ed565b01949350505050565b634e487b7160e01b600052601160045260246000fd5b6000828210156114ae576114ae611486565b500390565b600082198211156114c6576114c6611486565b500190565b60208082526032908201527f4552433732313a207472616e7366657220746f206e6f6e20455243373231526560408201527131b2b4bb32b91034b6b83632b6b2b73a32b960711b606082015260800190565b6001600160a01b038581168252841660208201526040810183905260806060820181905260009061155090830184611119565b9695505050505050565b60006020828403121561156c57600080fd5b8151610c33816110ba565b600060001982141561158b5761158b611486565b5060010190565b634e487b7160e01b600052601260045260246000fd5b6000826115b7576115b7611592565b500490565b6000826115cb576115cb611592565b500690565b634e487b7160e01b600052603260045260246000fdfea26469706673582212203f96cd9a1bcc5c60f117f7a210c463589998718dabf67559417ef675e3d33d1564736f6c63430008090033",
  "linkReferences": {},
  "deployedLinkReferences": {}
}