{
  "_format": "hh-sol-artifact-1",
  "contractName": "Platform",
  "sourceName": "contracts/Platform.sol",
  "abi": [
    {
      "inputs": [],
      "stateMutability": "nonpayable",
      "type": "constructor"
    },
    {
      "anonymous": false,
      "inputs": [
        {
          "indexed": false,
          "internalType": "uint256",
          "name": "_warrantyItemId",
          "type": "uint256"
        },
        {
          "indexed": false,
          "internalType": "uint256",
          "name": "tokenId",
          "type": "uint256"
        },
        {
          "indexed": true,
          "internalType": "address",
          "name": "nftContract",
          "type": "address"
        },
        {
          "indexed": true,
          "internalType": "address",
          "name": "owner",
          "type": "address"
        }
      ],
      "name": "Generated",
      "type": "event"
    },
    {
      "inputs": [
        {
          "internalType": "address",
          "name": "_nftContractAddress",
          "type": "address"
        },
        {
          "internalType": "string",
          "name": "_tokenMetaDataURI",
          "type": "string"
        },
        {
          "internalType": "address",
          "name": "_owner",
          "type": "address"
        }
      ],
      "name": "createWarranty",
      "outputs": [],
      "stateMutability": "nonpayable",
      "type": "function"
    },
    {
      "inputs": [],
      "name": "fetchMyNFTs",
      "outputs": [
        {
          "components": [
            {
              "internalType": "uint256",
              "name": "_warrantyItemId",
              "type": "uint256"
            },
            {
              "internalType": "uint256",
              "name": "tokenId",
              "type": "uint256"
            },
            {
              "internalType": "address",
              "name": "nftContract",
              "type": "address"
            },
            {
              "internalType": "address payable",
              "name": "owner",
              "type": "address"
            }
          ],
          "internalType": "struct Platform.Warranty[]",
          "name": "",
          "type": "tuple[]"
        }
      ],
      "stateMutability": "view",
      "type": "function"
    },
    {
      "inputs": [
        {
          "internalType": "uint256",
          "name": "",
          "type": "uint256"
        }
      ],
      "name": "itemIdToWarranty",
      "outputs": [
        {
          "internalType": "uint256",
          "name": "_warrantyItemId",
          "type": "uint256"
        },
        {
          "internalType": "uint256",
          "name": "tokenId",
          "type": "uint256"
        },
        {
          "internalType": "address",
          "name": "nftContract",
          "type": "address"
        },
        {
          "internalType": "address payable",
          "name": "owner",
          "type": "address"
        }
      ],
      "stateMutability": "view",
      "type": "function"
    }
  ],
  "bytecode": "0x608060405234801561001057600080fd5b50600160005561077c806100256000396000f3fe608060405234801561001057600080fd5b50600436106100415760003560e01c8063202e374014610046578063f74ec1b714610064578063ff282eb414610079575b600080fd5b61004e6100eb565b60405161005b91906104ec565b60405180910390f35b61007761007236600461058e565b6102c6565b005b6100bc610087366004610660565b600260208190526000918252604090912080546001820154928201546003909201549092916001600160a01b03908116911684565b6040805194855260208501939093526001600160a01b039182169284019290925216606082015260800161005b565b606060006100f860015490565b905060008060005b8381101561015b57336002600061011884600161068f565b81526020810191909152604001600020600301546001600160a01b031614156101495761014660018461068f565b92505b80610153816106a7565b915050610100565b5060008267ffffffffffffffff81111561017757610177610578565b6040519080825280602002602001820160405280156101c957816020015b6040805160808101825260008082526020808301829052928201819052606082015282526000199092019101816101955790505b50905060005b848110156102bd5733600260006101e784600161068f565b81526020810191909152604001600020600301546001600160a01b031614156102ab57600060028161021a84600161068f565b81526020808201929092526040908101600090812054808252600280855291839020835160808101855281548152600182015495810195909552918201546001600160a01b03908116938501939093526003820154909216606084015285519193509190859087908110610290576102906106c2565b60209081029190910101526102a660018661068f565b945050505b806102b5816106a7565b9150506101cf565b50949350505050565b6002600054141561031d5760405162461bcd60e51b815260206004820152601f60248201527f5265656e7472616e637947756172643a207265656e7472616e742063616c6c00604482015260640160405180910390fd5b6002600055610330600180546001019055565b600061033b60015490565b60405163d85d3d2760e01b815290915084906000906001600160a01b0383169063d85d3d279061036f9088906004016106d8565b602060405180830381600087803b15801561038957600080fd5b505af115801561039d573d6000803e3d6000fd5b505050506040513d601f19601f820116820180604052508101906103c1919061072d565b60405163e16d8c9f60e01b81523060048201526001600160a01b038681166024830152604482018390529192509083169063e16d8c9f90606401600060405180830381600087803b15801561041557600080fd5b505af1158015610429573d6000803e3d6000fd5b50506040805160808101825286815260208082018681526001600160a01b038c81168486018181528c83166060870181815260008e81526002808952908a90209851895595516001890155915194870180549585166001600160a01b03199687161790559051600390960180549690931695909316949094179055835189815291820187905294509092507fe290b82df0e0deb5a396ac1b2b90491df10bd71e781f30dd16fe1c84a696f9ec910160405180910390a35050600160005550505050565b602080825282518282018190526000919060409081850190868401855b8281101561054f578151805185528681015187860152858101516001600160a01b0390811687870152606091820151169085015260809093019290850190600101610509565b5091979650505050505050565b80356001600160a01b038116811461057357600080fd5b919050565b634e487b7160e01b600052604160045260246000fd5b6000806000606084860312156105a357600080fd5b6105ac8461055c565b9250602084013567ffffffffffffffff808211156105c957600080fd5b818601915086601f8301126105dd57600080fd5b8135818111156105ef576105ef610578565b604051601f8201601f19908116603f0116810190838211818310171561061757610617610578565b8160405282815289602084870101111561063057600080fd5b8260208601602083013760006020848301015280965050505050506106576040850161055c565b90509250925092565b60006020828403121561067257600080fd5b5035919050565b634e487b7160e01b600052601160045260246000fd5b600082198211156106a2576106a2610679565b500190565b60006000198214156106bb576106bb610679565b5060010190565b634e487b7160e01b600052603260045260246000fd5b600060208083528351808285015260005b81811015610705578581018301518582016040015282016106e9565b81811115610717576000604083870101525b50601f01601f1916929092016040019392505050565b60006020828403121561073f57600080fd5b505191905056fea26469706673582212201d6e7daf98f92b6893d0e3311574642ef1852738fcccdf8a92a9cd861b2d10ec64736f6c63430008090033",
  "linkReferences": {},
  "deployedLinkReferences": {}
}